:080358005765696768743A00FB
:0B034D00EF1FAC0670011E4C70F62282
:1002FD00D2A200C2A200D2A27F327E0012034DD242
:09030D00A300C2A300AF90D2A32B
:0103160022C4
:10029E00AE12AF137C0012002E7C007D0A12002ECF
:0602AE00ED2430FFD20236
:1002B400A20292A7C2A68F80D2A57F327E0012032B
:0A02C4004DC2A57F327E0002034DFB
:10031700120003FF600ED2021202B4740129F9E43D
:050327003AFA80EC220F
:10032C00C2027F381202B4C2027F061202B4C202A9
:05033C007F0C0202B479
:1002CE0030B60530B702D20020B61130000EC20093
:1002DE00D2011202FD750A008F0BC2B520B70F3086
:0F02EE00000CC200C20185100A85110BD2B52287
:1001B100C2A412032CC2027F801202B47BFF7A0315
:1001C1007958120317C2027F8A1202B4D2027F67E2
:1001D1001202B41202FD7510008F1185100A8511EB
:1001E1000B1202CE0515E51570020514C3942CE51A
:1001F1001494015003020276E4F514F5151202FD80
:10020100E48F0FF50EF50DF50CAE0AAF0BFCFDAB4F
:100211000FAA0EA90DA80C1201A04036AE0AAF0B11
:10022100AB07AA06E50F9BFFE50E9AFEE50D9400CC
:10023100FDE50C9400FCE47BC8FAF9F8120083E4B4
:100241007BFFFAF9F812010E8F0F8E0E8D0D8C0CBB
:100251008009E4F50FF50EF50DF50C850E12850FED
:1002610013AE12AF137C007D5C12001C7D0A1200DC
:100271002E8E128F13C2027F871202B47D64120286
:100281009E7D0A12029EAE12AF131202A7C3E50FA2
:0D029100950BF509E50E950AF5080201E24E
:03000000020341B7
:0C034100787FE4F6D8FD7581200201B140
:10000300BB010689828A83E0225002E722BBFE02FB
:09001300E32289828A83E493222E
:10001C00EF8DF0A4A8F0CF8CF0A428CE8DF0A42EF8
:02002C00FE22B2
:10002E00BC000BBE0029EF8DF084FFADF022E4CCB6
:10003E00F875F008EF2FFFEE33FEEC33FCEE9DEC7F
:10004E00984005FCEE9DFE0FD5F0E9E4CEFD22EDC5
:10005E00F8F5F0EE8420D21CFEADF075F008EF2F0F
:10006E00FFED33FD4007985006D5F0F222C398FD00
:05007E000FD5F0EA229D
:10008300E88FF0A4CC8BF0A42CFCE98EF0A42CFC1C
:100093008AF0EDA42CFCEA8EF0A4CDA8F08BF0A49A
:1000A3002DCC3825F0FDE98FF0A42CCD35F0FCEBF9
:1000B3008EF0A4FEA9F0EB8FF0A4CFC5F02ECD39BE
:0F00C300FEE43CFCEAA42DCE35F0FDE43CFC222B
:1000D20075F008758200EF2FFFEE33FECD33CDCCE5
:1000E20033CCC58233C5829BED9AEC99E582984068
:1000F2000CF582EE9BFEED9AFDEC99FC0FD5F0D645
:10010200E4CEFBE4CDFAE4CCF9A88222B800C1B96E
:100112000059BA002DEC8BF084CFCECDFCE5F0CBAC
:10012200F97818EF2FFFEE33FEED33FDEC33FCEBE5
:1001320033FB10D703994004EB99FB0FD8E5E4F9A0
:10014200FA227818EF2FFFEE33FEED33FDEC33FC8D
:10015200C933C910D7059BE99A4007EC9BFCE99A81
:10016200F90FD8E0E4C9FAE4CCFB2275F010EF2FC6
:10017200FFEE33FEED33FDCC33CCC833C810D707C6
:100182009BEC9AE899400AED9BFDEC9AFCE899F801
:0E0192000FD5F0DAE4CDFBE4CCFAE4C8F92294
:1001A000EB9FF5F0EA9E42F0E99D42F0E89C45F0B5
:0101B000222C
:00000001FF
